{
  "_format": "hh-sol-artifact-1",
  "contractName": "Bridge",
  "sourceName": "contracts/Bridge.sol",
  "abi": [
    {
      "anonymous": false,
      "inputs": [
        {
          "indexed": true,
          "internalType": "address",
          "name": "previousOwner",
          "type": "address"
        },
        {
          "indexed": true,
          "internalType": "address",
          "name": "newOwner",
          "type": "address"
        }
      ],
      "name": "OwnershipTransferred",
      "type": "event"
    },
    {
      "anonymous": false,
      "inputs": [
        {
          "indexed": true,
          "internalType": "address",
          "name": "from",
          "type": "address"
        },
        {
          "indexed": false,
          "internalType": "address",
          "name": "tokenAddress",
          "type": "address"
        },
        {
          "indexed": false,
          "internalType": "uint256",
          "name": "amount",
          "type": "uint256"
        },
        {
          "indexed": false,
          "internalType": "uint256",
          "name": "nonce",
          "type": "uint256"
        },
        {
          "indexed": false,
          "internalType": "bytes",
          "name": "signature",
          "type": "bytes"
        }
      ],
      "name": "TokenMovedToBridge",
      "type": "event"
    },
    {
      "anonymous": false,
      "inputs": [
        {
          "indexed": true,
          "internalType": "address",
          "name": "to",
          "type": "address"
        },
        {
          "indexed": false,
          "internalType": "address",
          "name": "tokenAddress",
          "type": "address"
        },
        {
          "indexed": false,
          "internalType": "uint256",
          "name": "amount",
          "type": "uint256"
        },
        {
          "indexed": false,
          "internalType": "uint256",
          "name": "nonce",
          "type": "uint256"
        },
        {
          "indexed": false,
          "internalType": "bytes",
          "name": "signature",
          "type": "bytes"
        }
      ],
      "name": "TokenMovedToUser",
      "type": "event"
    },
    {
      "inputs": [
        {
          "internalType": "address",
          "name": "_token",
          "type": "address"
        },
        {
          "internalType": "address",
          "name": "_matchToken",
          "type": "address"
        }
      ],
      "name": "addMatchTokenPair",
      "outputs": [],
      "stateMutability": "nonpayable",
      "type": "function"
    },
    {
      "inputs": [
        {
          "internalType": "address",
          "name": "_to",
          "type": "address"
        },
        {
          "internalType": "address",
          "name": "_tokenAddress",
          "type": "address"
        },
        {
          "internalType": "uint256",
          "name": "_amount",
          "type": "uint256"
        },
        {
          "internalType": "uint256",
          "name": "_nonce",
          "type": "uint256"
        },
        {
          "internalType": "bytes",
          "name": "_signature",
          "type": "bytes"
        }
      ],
      "name": "bridgeTransferExactToken",
      "outputs": [
        {
          "internalType": "bool",
          "name": "",
          "type": "bool"
        }
      ],
      "stateMutability": "nonpayable",
      "type": "function"
    },
    {
      "inputs": [
        {
          "internalType": "address",
          "name": "_token",
          "type": "address"
        }
      ],
      "name": "getMatchToken",
      "outputs": [
        {
          "internalType": "address",
          "name": "",
          "type": "address"
        }
      ],
      "stateMutability": "view",
      "type": "function"
    },
    {
      "inputs": [
        {
          "internalType": "address",
          "name": "_signer",
          "type": "address"
        },
        {
          "internalType": "address",
          "name": "_tokenAddress",
          "type": "address"
        },
        {
          "internalType": "uint256",
          "name": "_amount",
          "type": "uint256"
        },
        {
          "internalType": "uint256",
          "name": "_nonce",
          "type": "uint256"
        }
      ],
      "name": "getMessageHash",
      "outputs": [
        {
          "internalType": "bytes32",
          "name": "",
          "type": "bytes32"
        }
      ],
      "stateMutability": "pure",
      "type": "function"
    },
    {
      "inputs": [],
      "name": "getUserNonce",
      "outputs": [
        {
          "internalType": "uint256",
          "name": "",
          "type": "uint256"
        }
      ],
      "stateMutability": "view",
      "type": "function"
    },
    {
      "inputs": [
        {
          "internalType": "address",
          "name": "_tokenAddress",
          "type": "address"
        },
        {
          "internalType": "uint256",
          "name": "_amount",
          "type": "uint256"
        },
        {
          "internalType": "uint256",
          "name": "_nonce",
          "type": "uint256"
        },
        {
          "internalType": "bytes",
          "name": "_signature",
          "type": "bytes"
        }
      ],
      "name": "moveTokenThroughBridgeForExactToken",
      "outputs": [
        {
          "internalType": "bool",
          "name": "",
          "type": "bool"
        }
      ],
      "stateMutability": "nonpayable",
      "type": "function"
    },
    {
      "inputs": [],
      "name": "owner",
      "outputs": [
        {
          "internalType": "address",
          "name": "",
          "type": "address"
        }
      ],
      "stateMutability": "view",
      "type": "function"
    },
    {
      "inputs": [],
      "name": "renounceOwnership",
      "outputs": [],
      "stateMutability": "nonpayable",
      "type": "function"
    },
    {
      "inputs": [
        {
          "internalType": "address",
          "name": "newOwner",
          "type": "address"
        }
      ],
      "name": "transferOwnership",
      "outputs": [],
      "stateMutability": "nonpayable",
      "type": "function"
    }
  ],
  "bytecode": "0x608060405234801561001057600080fd5b5061002d61002261003260201b60201c565b61003a60201b60201c565b6100fe565b600033905090565b60008060009054906101000a900473ffffffffffffffffffffffffffffffffffffffff169050816000806101000a81548173ffffffffffffffffffffffffffffffffffffffff021916908373ffffffffffffffffffffffffffffffffffffffff1602179055508173ffffffffffffffffffffffffffffffffffffffff168173ffffffffffffffffffffffffffffffffffffffff167f8be0079c531659141344cd1fd0a4f28419497f9722a3daafe3b4186f6b6457e060405160405180910390a35050565b611b218061010d6000396000f3fe608060405234801561001057600080fd5b50600436106100935760003560e01c8063715018a611610066578063715018a6146101445780637e0f5e821461014e5780638da5cb5b1461016c578063997b138c1461018a578063f2fde38b146101ba57610093565b80630b71a0b714610098578063191f4f00146100c85780633337f2d4146100f85780633614ff0314610114575b600080fd5b6100b260048036038101906100ad9190610fd0565b6101d6565b6040516100bf9190611050565b60405180910390f35b6100e260048036038101906100dd919061106b565b61020f565b6040516100ef91906110a7565b60405180910390f35b610112600480360381019061010d91906110c2565b610278565b005b61012e60048036038101906101299190611167565b610376565b60405161013b919061120a565b60405180910390f35b61014c6104bd565b005b610156610545565b6040516101639190611234565b60405180910390f35b61017461058c565b60405161018191906110a7565b60405180910390f35b6101a4600480360381019061019f919061124f565b6105b5565b6040516101b1919061120a565b60405180910390f35b6101d460048036038101906101cf919061106b565b610980565b005b6000848484846040516020016101ef9493929190611352565b604051602081830303815290604052805190602001209050949350505050565b6000600260008373ffffffffffffffffffffffffffffffffffffffff1673ffffffffffffffffffffffffffffffffffffffff16815260200190815260200160002060009054906101000a900473ffffffffffffffffffffffffffffffffffffffff169050919050565b610280610a78565b73ffffffffffffffffffffffffffffffffffffffff1661029e61058c565b73ffffffffffffffffffffffffffffffffffffffff16146102f4576040517f08c379a00000000000000000000000000000000000000000000000000000000081526004016102eb906113fd565b60405180910390fd5b80600260008473ffffffffffffffffffffffffffffffffffffffff1673ffffffffffffffffffffffffffffffffffffffff16815260200190815260200160002060006101000a81548173ffffffffffffffffffffffffffffffffffffffff021916908373ffffffffffffffffffffffffffffffffffffffff1602179055505050565b6000600160003373ffffffffffffffffffffffffffffffffffffffff1673ffffffffffffffffffffffffffffffffffffffff1681526020019081526020016000205484146103f9576040517f08c379a00000000000000000000000000000000000000000000000000000000081526004016103f090611469565b60405180910390fd5b600160003373ffffffffffffffffffffffffffffffffffffffff1673ffffffffffffffffffffffffffffffffffffffff1681526020019081526020016000206000815480929190610449906114b8565b9190505550610459338787610a80565b503373ffffffffffffffffffffffffffffffffffffffff167fde066e5f817d61248a6e74d8f27be6ee644e81ac7346fd3d9f0c9758777226d087878787876040516104a895949392919061155f565b60405180910390a26001905095945050505050565b6104c5610a78565b73ffffffffffffffffffffffffffffffffffffffff166104e361058c565b73ffffffffffffffffffffffffffffffffffffffff1614610539576040517f08c379a0000000000000000000000000000000000000000000000000000000008152600401610530906113fd565b60405180910390fd5b6105436000610bc3565b565b6000600160003373ffffffffffffffffffffffffffffffffffffffff1673ffffffffffffffffffffffffffffffffffffffff16815260200190815260200160002054905090565b60008060009054906101000a900473ffffffffffffffffffffffffffffffffffffffff16905090565b60006105bf610a78565b73ffffffffffffffffffffffffffffffffffffffff166105dd61058c565b73ffffffffffffffffffffffffffffffffffffffff1614610633576040517f08c379a000000000000000000000000000000000000000000000000000000000815260040161062a906113fd565b60405180910390fd5b600073ffffffffffffffffffffffffffffffffffffffff168673ffffffffffffffffffffffffffffffffffffffff1614156106a3576040517f08c379a000000000000000000000000000000000000000000000000000000000815260040161069a906115f9565b60405180910390fd5b600085116106e6576040517f08c379a00000000000000000000000000000000000000000000000000000000081526004016106dd90611665565b60405180910390fd5b6041838390501461072c576040517f08c379a0000000000000000000000000000000000000000000000000000000008152600401610723906116d1565b60405180910390fd5b83600160008973ffffffffffffffffffffffffffffffffffffffff1673ffffffffffffffffffffffffffffffffffffffff16815260200190815260200160002054146107ad576040517f08c379a00000000000000000000000000000000000000000000000000000000081526004016107a49061173d565b60405180910390fd5b6107fe8787878787878080601f016020809104026020016040519081016040528093929190818152602001838380828437600081840152601f19601f82011690508083019250505050505050610c87565b61083d576040517f08c379a0000000000000000000000000000000000000000000000000000000008152600401610834906117a9565b60405180910390fd5b60006108488761020f565b9050600073ffffffffffffffffffffffffffffffffffffffff168173ffffffffffffffffffffffffffffffffffffffff1614156108ba576040517f08c379a00000000000000000000000000000000000000000000000000000000081526004016108b190611815565b60405180910390fd5b600160008973ffffffffffffffffffffffffffffffffffffffff1673ffffffffffffffffffffffffffffffffffffffff168152602001908152602001600020600081548092919061090a906114b8565b919050555061091a888288610cea565b508773ffffffffffffffffffffffffffffffffffffffff167fb0f82f693911bb51a3af18760165cfab7597b9a52d526dc002c2cceb254a70f9828888888860405161096995949392919061155f565b60405180910390a260019150509695505050505050565b610988610a78565b73ffffffffffffffffffffffffffffffffffffffff166109a661058c565b73ffffffffffffffffffffffffffffffffffffffff16146109fc576040517f08c379a00000000000000000000000000000000000000000000000000000000081526004016109f3906113fd565b60405180910390fd5b600073ffffffffffffffffffffffffffffffffffffffff168173ffffffffffffffffffffffffffffffffffffffff161415610a6c576040517f08c379a0000000000000000000000000000000000000000000000000000000008152600401610a63906118a7565b60405180910390fd5b610a7581610bc3565b50565b600033905090565b60008073ffffffffffffffffffffffffffffffffffffffff168373ffffffffffffffffffffffffffffffffffffffff161415610af1576040517f08c379a0000000000000000000000000000000000000000000000000000000008152600401610ae8906115f9565b60405180910390fd5b60008211610b34576040517f08c379a0000000000000000000000000000000000000000000000000000000008152600401610b2b90611665565b60405180910390fd5b60008390508073ffffffffffffffffffffffffffffffffffffffff166323b872dd8630866040518463ffffffff1660e01b8152600401610b76939291906118c7565b6020604051808303816000875af1158015610b95573d6000803e3d6000fd5b505050506040513d601f19601f82011682018060405250810190610bb9919061192a565b9150509392505050565b60008060009054906101000a900473ffffffffffffffffffffffffffffffffffffffff169050816000806101000a81548173ffffffffffffffffffffffffffffffffffffffff021916908373ffffffffffffffffffffffffffffffffffffffff1602179055508173ffffffffffffffffffffffffffffffffffffffff168173ffffffffffffffffffffffffffffffffffffffff167f8be0079c531659141344cd1fd0a4f28419497f9722a3daafe3b4186f6b6457e060405160405180910390a35050565b600080610c96878787876101d6565b90506000610ca382610e2b565b90508773ffffffffffffffffffffffffffffffffffffffff16610cc68286610e5b565b73ffffffffffffffffffffffffffffffffffffffff16149250505095945050505050565b60008073ffffffffffffffffffffffffffffffffffffffff168373ffffffffffffffffffffffffffffffffffffffff161415610d5b576040517f08c379a0000000000000000000000000000000000000000000000000000000008152600401610d52906115f9565b60405180910390fd5b60008211610d9e576040517f08c379a0000000000000000000000000000000000000000000000000000000008152600401610d9590611665565b60405180910390fd5b60008390508073ffffffffffffffffffffffffffffffffffffffff1663a9059cbb86856040518363ffffffff1660e01b8152600401610dde929190611957565b6020604051808303816000875af1158015610dfd573d6000803e3d6000fd5b505050506040513d601f19601f82011682018060405250810190610e21919061192a565b9150509392505050565b600081604051602001610e3e91906119f8565b604051602081830303815290604052805190602001209050919050565b600080600080610e6a85610eca565b92509250925060018682858560405160008152602001604052604051610e939493929190611a3a565b6020604051602081039080840390855afa158015610eb5573d6000803e3d6000fd5b50505060206040510351935050505092915050565b60008060006041845114610f13576040517f08c379a0000000000000000000000000000000000000000000000000000000008152600401610f0a90611acb565b60405180910390fd5b6020840151925060408401519150606084015160001a90509193909250565b600080fd5b600080fd5b600073ffffffffffffffffffffffffffffffffffffffff82169050919050565b6000610f6782610f3c565b9050919050565b610f7781610f5c565b8114610f8257600080fd5b50565b600081359050610f9481610f6e565b92915050565b6000819050919050565b610fad81610f9a565b8114610fb857600080fd5b50565b600081359050610fca81610fa4565b92915050565b60008060008060808587031215610fea57610fe9610f32565b5b6000610ff887828801610f85565b945050602061100987828801610f85565b935050604061101a87828801610fbb565b925050606061102b87828801610fbb565b91505092959194509250565b6000819050919050565b61104a81611037565b82525050565b60006020820190506110656000830184611041565b92915050565b60006020828403121561108157611080610f32565b5b600061108f84828501610f85565b91505092915050565b6110a181610f5c565b82525050565b60006020820190506110bc6000830184611098565b92915050565b600080604083850312156110d9576110d8610f32565b5b60006110e785828601610f85565b92505060206110f885828601610f85565b9150509250929050565b600080fd5b600080fd5b600080fd5b60008083601f84011261112757611126611102565b5b8235905067ffffffffffffffff81111561114457611143611107565b5b6020830191508360018202830111156111605761115f61110c565b5b9250929050565b60008060008060006080868803121561118357611182610f32565b5b600061119188828901610f85565b95505060206111a288828901610fbb565b94505060406111b388828901610fbb565b935050606086013567ffffffffffffffff8111156111d4576111d3610f37565b5b6111e088828901611111565b92509250509295509295909350565b60008115159050919050565b611204816111ef565b82525050565b600060208201905061121f60008301846111fb565b92915050565b61122e81610f9a565b82525050565b60006020820190506112496000830184611225565b92915050565b60008060008060008060a0878903121561126c5761126b610f32565b5b600061127a89828a01610f85565b965050602061128b89828a01610f85565b955050604061129c89828a01610fbb565b94505060606112ad89828a01610fbb565b935050608087013567ffffffffffffffff8111156112ce576112cd610f37565b5b6112da89828a01611111565b92509250509295509295509295565b60008160601b9050919050565b6000611301826112e9565b9050919050565b6000611313826112f6565b9050919050565b61132b61132682610f5c565b611308565b82525050565b6000819050919050565b61134c61134782610f9a565b611331565b82525050565b600061135e828761131a565b60148201915061136e828661131a565b60148201915061137e828561133b565b60208201915061138e828461133b565b60208201915081905095945050505050565b600082825260208201905092915050565b7f4f776e61626c653a2063616c6c6572206973206e6f7420746865206f776e6572600082015250565b60006113e76020836113a0565b91506113f2826113b1565b602082019050919050565b60006020820190508181036000830152611416816113da565b9050919050565b7f4252494447453a206e6f6e6365206d69736d6174636800000000000000000000600082015250565b60006114536016836113a0565b915061145e8261141d565b602082019050919050565b6000602082019050818103600083015261148281611446565b9050919050565b7f4e487b7100000000000000000000000000000000000000000000000000000000600052601160045260246000fd5b60006114c382610f9a565b91507fffffffffffffffffffffffffffffffffffffffffffffffffffffffffffffffff8214156114f6576114f5611489565b5b600182019050919050565b600082825260208201905092915050565b82818337600083830152505050565b6000601f19601f8301169050919050565b600061153e8385611501565b935061154b838584611512565b61155483611521565b840190509392505050565b60006080820190506115746000830188611098565b6115816020830187611225565b61158e6040830186611225565b81810360608301526115a1818486611532565b90509695505050505050565b7f4252494447453a20696e76616c696420746f6b656e2061646472657373000000600082015250565b60006115e3601d836113a0565b91506115ee826115ad565b602082019050919050565b60006020820190508181036000830152611612816115d6565b9050919050565b7f4252494447453a20696e76616c696420616d6f756e7400000000000000000000600082015250565b600061164f6016836113a0565b915061165a82611619565b602082019050919050565b6000602082019050818103600083015261167e81611642565b9050919050565b7f4252494447453a20696e76616c6964207369676e617475726500000000000000600082015250565b60006116bb6019836113a0565b91506116c682611685565b602082019050919050565b600060208201905081810360008301526116ea816116ae565b9050919050565b7f4252494447453a206d69736d61746368206e6f6e636500000000000000000000600082015250565b60006117276016836113a0565b9150611732826116f1565b602082019050919050565b600060208201905081810360008301526117568161171a565b9050919050565b7f4252494447453a206d69736d61746368207369676e6174757265000000000000600082015250565b6000611793601a836113a0565b915061179e8261175d565b602082019050919050565b600060208201905081810360008301526117c281611786565b9050919050565b7f4252494447453a206e6f6e2d6578697374656e7420746f6b656e206d61746368600082015250565b60006117ff6020836113a0565b915061180a826117c9565b602082019050919050565b6000602082019050818103600083015261182e816117f2565b9050919050565b7f4f776e61626c653a206e6577206f776e657220697320746865207a65726f206160008201527f6464726573730000000000000000000000000000000000000000000000000000602082015250565b60006118916026836113a0565b915061189c82611835565b604082019050919050565b600060208201905081810360008301526118c081611884565b9050919050565b60006060820190506118dc6000830186611098565b6118e96020830185611098565b6118f66040830184611225565b949350505050565b611907816111ef565b811461191257600080fd5b50565b600081519050611924816118fe565b92915050565b6000602082840312156119405761193f610f32565b5b600061194e84828501611915565b91505092915050565b600060408201905061196c6000830185611098565b6119796020830184611225565b9392505050565b600081905092915050565b7f19457468657265756d205369676e6564204d6573736167653a0a333200000000600082015250565b60006119c1601c83611980565b91506119cc8261198b565b601c82019050919050565b6000819050919050565b6119f26119ed82611037565b6119d7565b82525050565b6000611a03826119b4565b9150611a0f82846119e1565b60208201915081905092915050565b600060ff82169050919050565b611a3481611a1e565b82525050565b6000608082019050611a4f6000830187611041565b611a5c6020830186611a2b565b611a696040830185611041565b611a766060830184611041565b95945050505050565b7f696e76616c6964207369676e6174757265206c656e6774680000000000000000600082015250565b6000611ab56018836113a0565b9150611ac082611a7f565b602082019050919050565b60006020820190508181036000830152611ae481611aa8565b905091905056fea2646970667358221220cebc8c7b791bc25aa584a9801d95a3afb8b5841587b6c8481e1917096b4e3b6a64736f6c634300080a0033",
  "linkReferences": {},
  "deployedLinkReferences": {}
}